:100000000C9465000C9482000C9482000C94820085
:100010000C9482000C9482000C9482000C94820058
:100020000C9482000C9482000C9482000C94820048
:100030000C9482000C9482000C9482000C94820038
:100040000C9482000C9482000C9482000C94820028
:100050000C9482000C9482000C9482000C94820018
:100060000C944C010C94820070019C019C019C0139
:100070009C019C019C019C0170019C019C019C01C4
:100080009C019C019C019C0178019C019C019C01AC
:100090009C019C019C019C0195019C019C019C017F
:1000A0009C019C019C019C0178019C019C019C018C
:1000B0009C019C019C019C0195019C019C019C015F
:1000C0009C019C019C019C01950111241FBECFEF56
:1000D000D8E0DEBFCDBF11E0A0E0B1E0EAE6F3E09A
:1000E00002C005900D92A230B107D9F721E0A2E03D
:1000F000B1E001C01D92AC33B207E1F70E94840069
:100100000C94B3010C9400007894D0E00F2EFFEE15
:10011000AF2EF02D0F2EF1E8BF2EF02D11E20F2E95
:10012000FBE2CF2EF1E0DF2EF02D0F2EFCE3EF2EC1
:10013000F1E0FF2EF02DCFEFA0922901B09228011F
:1001400010932A01F6011082ECE2F1E0C193EE1562
:10015000FF05E1F70E94D80001E021E041E06AE2FA
:1001600071E080E70E94E90021E041E068E271E08F
:1001700080E70E94E90021E041E069E271E080E768
:100180000E94E90021E041E1B60180E70E94E90018
:10019000DF5FD03188F2D0E0CFCF85ED8093BC0017
:1001A000ECEBF0E0808184FDFDCF109227010895F3
:1001B00010922701E9EBF0E08081816080838081EB
:1001C0008260808388E98093B80085E48093BC00D6
:1001D00008950F93413208F057C030912701311133
:1001E000FCCF92E090932701009300019FEF909342
:1001F00025011092020140930301442371F0FB0199
:10020000A4E0B1E0415050E04F5F5F4F640F751FB5
:1002100091919D93E617F707D9F7109224019091D9
:100220002401880F892B8093240180912601882343
:1002300081F010922601ABEBB0E0ECEBF0E0909196
:1002400024019C93908193FDFACF85EC8093BC00B0
:1002500003C085EE8093BC00222341F080912701EA
:10026000823021F4809127018230E1F380912501D1
:100270008F3F79F080912501803241F080912501F6
:10028000803331F034E005C031E003C032E001C01A
:1002900033E0832F0F9108951F920F920FB60F92A4
:1002A00011242F933F934F935F936F937F938F937B
:1002B0009F93AF93BF93EF93FF9380912701823079
:1002C000D9F58091B900E82FE87F8E2F90E0FC01EE
:1002D0003897E133F10580F5EC5CFF4F0C94AD01EC
:1002E000809124018093BB0085EC8093BC0024C0E6
:1002F0009091020180910301981780F4E09102012E
:1003000081E08E0F80930201F0E0EC5FFE4F808170
:100310008093BB0085EC8093BC000EC080910001EF
:10032000882351F00E94CD0007C00E94CD0080912B
:10033000B900887F80932501FF91EF91BF91AF9124
:100340009F918F917F916F915F914F913F912F91ED
:100350000F900FBE0F901F901895EE0FFF1F059086
:0A036000F491E02D0994F894FFCF0A
:02036A00010090
:00000001FF
