S01100004932434472697665722E73726563E9
S11300000C9434000C9451000C9451000C94510045
S11300100C9451000C9451000C9451000C94510018
S11300200C9451000C9451000C9451000C94510008
S11300300C9451000C9451000C9451000C945100F8
S11300400C9451000C9451000C9451000C945100E8
S11300500C9451000C9451000C9451000C945100D8
S11300600C94F9000C94510011241FBECFEFD8E07A
S1130070DEBFCDBF11E0A0E0B1E0E8EBF2E002C0EA
S113008005900D92A230B107D9F721E0A2E0B1E0CA
S113009001C01D92AC33B207E1F70E9453000C94E7
S11300A05A010C9400007894CFEED1E811E2FF24B9
S11300B0FA94C0932901D093280110932A01109235
S11300C02B01ECE2F1E0F19281E0EC33F807D9F78F
S11300D00E94920001E021E041E06AE271E080E7E1
S11300E00E94A30021E041E068E271E080E70E9401
S11300F0A30021E041E069E271E080E70E94A300EF
S113010021E041E16BE271E080E70E94A300D1CFDE
S113011085ED8093BC008091BC0084FDFCCF1092DF
S11301202701089510922701E9EBF0E080818160B6
S1130130808380818260808388E98093B80085E42D
S11301408093BC0008950F93413208F04AC0909107
S113015027019111FCCF32E0309327010093000175
S11301603FEF309325011092020140930301562F73
S1130170A4E0B1E0FB013E2F351B341718F4319194
S11301803D93F9CF1092240130912401880F832BE1
S11301908093240180912601882361F01092260126
S11301A0809124018093BB008091BC0083FDF8CF33
S11301B085EC01C085EE8093BC00222321F0809160
S11301C027018230D1F3809125018F3F79F080910E
S11301D02501803241F080912501803331F094E093
S11301E005C091E003C092E001C093E0892F0F9114
S11301F008951F920F920FB60F9211242F933F93DD
S11302004F935F936F937F938F939F93AF93BF931A
S1130210EF93FF93809127018230D9F58091B90043
S1130220887F803279F138F4803161F0883169F067
S1130230883079F507C0803329F1883319F1883281
S113024041F503C08091240110C090910201809176
S11302500301981780F4E091020181E08E0F8093EE
S11302600201F0E0EC5FFE4F80818093BB0085ECDF
S11302708093BC000EC080910001882351F00E943D
S1130280880007C00E9488008091B900887F80930D
S11302902501FF91EF91BF91AF919F918F917F9134
S11302A06F915F914F913F912F910F900FBE0F90DF
S10B02B01F901895F894FFCF8C
S10502B801003F
S9030000FC
