S01100004932434472697665722E73726563E9
S11300000C9465000C9482000C9482000C94820081
S11300100C9482000C9482000C9482000C94820054
S11300200C9482000C9482000C9482000C94820044
S11300300C9482000C9482000C9482000C94820034
S11300400C9482000C9482000C9482000C94820024
S11300500C9482000C9482000C9482000C94820014
S11300600C943A010C9482005E018A018A018A018F
S11300708A018A018A018A015E018A018A018A0150
S11300808A018A018A018A0166018A018A018A0138
S11300908A018A018A018A0183018A018A018A010B
S11300A08A018A018A018A0166018A018A018A0118
S11300B08A018A018A018A0183018A018A018A01EB
S11300C08A018A018A018A01830111241FBECFEFAC
S11300D0D8E0DEBFCDBF11E0A0E0B1E0E6E4F3E09C
S11300E002C005900D92A230B107D9F721E0A2E039
S11300F0B1E001C01D92A033B207E1F70E94840071
S11301000C94A1010C940000789410E00F2EF0E3FD
S1130110EF2EF1E0FF2EF02DC1E0D0E0812F90E032
S11301200896E8E2F1E09C0128503109AE0102C0D2
S1130130440F551F2A95E2F79E01082E02C0220F94
S1130140331F0A94E2F7242B21930196EE15FF0541
S113015051F70E94C30001E021E048E068E271E049
S113016080E70E94D7001F5F1031C0F210E0D6CFA5
S113017085ED8093BC00ECEBF0E0808184FDFDCF45
S11301801092270108958AB18FEF8AB9109227013E
S1130190E9EBF0E0808181608083808182608083EC
S11301A088E98093B80085E48093BC0008950F9398
S11301B0413208F057C0309127013111FCCF92E051
S11301C090932701009300019FEF909325011092D3
S11301D0020140930301442371F0FB01A4E0B1E068
S11301E0415050E04F5F5F4F640F751F91919D9395
S11301F0E617F707D9F71092240190912401880F8C
S1130200892B8093240180912601882381F0109208
S11302102601ABEBB0E0ECEBF0E0909124019C9371
S1130220908193FDFACF85EC8093BC0003C085EEEA
S11302308093BC00222341F080912701823021F475
S1130240809127018230E1F3809125018F3F79F07D
S113025080912501803241F080912501803331F075
S113026034E005C031E003C032E001C033E0832F45
S11302700F9108951F920F920FB60F9211242F938E
S11302803F934F935F936F937F938F939F93AF931A
S1130290BF93EF93FF93809127018230D9F580912A
S11302A0B900E82FE87F8E2F90E0FC013897E13306
S11302B0F10580F5EC5CFF4F0C949B0180912401C7
S11302C08093BB0085EC8093BC0024C09091020114
S11302D080910301981780F4E091020181E08E0F70
S11302E080930201F0E0EC5FFE4F80818093BB00BD
S11302F085EC8093BC000EC080910001882351F0EE
S11303000E94B80007C00E94B8008091B900887F9D
S113031080932501FF91EF91BF91AF919F918F91B0
S11303207F916F915F914F913F912F910F900FBEED
S11303300F901F901895EE0FFF1F0590F491E02D7C
S10903400994F894FFCFBC
S10503460100B0
S9030000FC
